{
  "istanbul": {
    "_info": {},
    "blocks": [
      {
        "blockHeader": {
          "parentHash": "0xfcf37297d9e49a1c75e6d18f0e490d1c0ecb3c49cb464f4fd95bb224a8262bda",
          "uncleHash": "0x1dcc4de8dec75d7aab85b567b6ccd41ad312451b948a7413f0a142fd40d49347",
          "coinbase": "0x2adc25665018aa1fe0e6bc666dac8fc2697ff9ba",
          "stateRoot": "0x330a7882a8fadd60d0b6bf3d8ce7a8ae024800ae31ad8fae24d654a6a83fcad6",
          "transactionsTrie": "0x8151d548273f6683169524b66ca9fe338b9ce42bc3540046c828fd939ae23bcb",
          "receiptTrie": "0xfa9e942c7bab1017c29ab8b7f9484e311f3a2ba680c2ec8abbaea2365cecc93e",
          "bloom": "0x00000000000000000000000000000000000000000000000000000000000000000000000000000000000000000000000000000000000000000000000000000000000000000000000000000000000000000000000000000000000000000000000000000000000000000000000000000000000000000000000000000000000000000000000000000000000000000000000000000000000000000000000000000000000000000000000000000000000000000000000000000000000000000000000000000000000000000000000000000000000000000000000000000000000000000000000000000000000000000000000000000000000000000000000000000000",
          "difficulty": "0x20000",
          "number": "0x1",
          "gasLimit": "0x2540be400",
          "gasUsed": "0xa02d",
          "timestamp": "0x3e8",
          "extraData": "0x00",
          "mixHash": "0x0000000000000000000000000000000000000000000000000000000000000000",
          "nonce": "0x0000000000000000",
          "hash": "0xc413245fffae8b7c6392bcd3dfbbdee24118e94d9a58722a7abd91a4e1d048b7"
        },
        "rlp": "0xf90262f901f9a0fcf37297d9e49a1c75e6d18f0e490d1c0ecb3c49cb464f4fd95bb224a8262bdaa01dcc4de8dec75d7aab85b567b6ccd41ad312451b948a7413f0a142fd40d49347942adc25665018aa1fe0e6bc666dac8fc2697ff9baa0330a7882a8fadd60d0b6bf3d8ce7a8ae024800ae31ad8fae24d654a6a83fcad6a08151d548273f6683169524b66ca9fe338b9ce42bc3540046c828fd939ae23bcba0fa9e942c7bab1017c29ab8b7f9484e311f3a2ba680c2ec8abbaea2365cecc93eb901000000000000000000000000000000000000000000000000000000000000000000000000000000000000000000000000000000000000000000000000000000000000000000000000000000000000000000000000000000000000000000000000000000000000000000000000000000000000000000000000000000000000000000000000000000000000000000000000000000000000000000000000000000000000000000000000000000000000000000000000000000000000000000000000000000000000000000000000000000000000000000000000000000000000000000000000000000000000000000000000000000000000000000000000000000000083020000018502540be40082a02d8203e800a00000000000000000000000000000000000000000000000000000000000000000880000000000000000f863f861800a8405f5e10094100000000000000000000000000000000000000080801ba07e09e26678ed4fac08a249ebe8ed680bf9051a5e14ad223e4b2b9d26e0208f37a05f6e3f188e3e6eab7d7d3b6568f5eac7d687b08d307d3154ccd8c87b4630509bc0"
      }
    ],
    "genesisBlockHeader": {
      "bloom": "0x00000000000000000000000000000000000000000000000000000000000000000000000000000000000000000000000000000000000000000000000000000000000000000000000000000000000000000000000000000000000000000000000000000000000000000000000000000000000000000000000000000000000000000000000000000000000000000000000000000000000000000000000000000000000000000000000000000000000000000000000000000000000000000000000000000000000000000000000000000000000000000000000000000000000000000000000000000000000000000000000000000000000000000000000000000000",
      "coinbase": "0x0000000000000000000000000000000000000000",
      "difficulty": "0x20000",
      "extraData": "0x00",
      "gasLimit": "0x2540be400",
      "gasUsed": "0x0",
      "hash": "0xfcf37297d9e49a1c75e6d18f0e490d1c0ecb3c49cb464f4fd95bb224a8262bda",
      "mixHash": "0x0000000000000000000000000000000000000000000000000000000000000000",
      "nonce": "0x0000000000000000",
      "number": "0x0",
      "parentHash": "0x0000000000000000000000000000000000000000000000000000000000000000",
      "receiptTrie": "0x56e81f171bcc55a6ff8345e692c0f86e5b48e01b996cadc001622fb5e363b421",
      "stateRoot": "0xaff9f63320a482f8c4e4f15f659e6a7ac382138fbbb6919243b0cba4c5988a5a",
      "timestamp": "0x0",
      "transactionsTrie": "0x56e81f171bcc55a6ff8345e692c0f86e5b48e01b996cadc001622fb5e363b421",
      "uncleHash": "0x1dcc4de8dec75d7aab85b567b6ccd41ad312451b948a7413f0a142fd40d49347"
    },
    "lastblockhash": "0xc413245fffae8b7c6392bcd3dfbbdee24118e94d9a58722a7abd91a4e1d048b7",
    "network": "Istanbul",
    "pre": {
      "0x1000000000000000000000000000000000000000": {
        "balance": "0x0",
        "code": "0x4660015500",
        "nonce": "0x0",
        "storage": {}
      },
      "0xa94f5374fce5edbc8e2a8697c15331677e6ebf0b": {
        "balance": "0x3635c9adc5dea00000",
        "code": "0x",
        "nonce": "0x0",
        "storage": {}
      }
    },
    "sealEngine": "NoProof"
  }
}