{
  "london": {
    "_info": {},
    "blocks": [
      {
        "rlp": "0xf90263f901faa021eba612cf2240594824cd3eb7cd55f2cd2fed3b2f25e18b904d7f8c7c9b65a2a01dcc4de8dec75d7aab85b567b6ccd41ad312451b948a7413f0a142fd40d49347942adc25665018aa1fe0e6bc666dac8fc2697ff9baa06b4ddd615401c478a76add2e6cc9bdb0a419abee39325fb6a54f9d2e77e47527a08151d548273f6683169524b66ca9fe338b9ce42bc3540046c828fd939ae23bcba0c598f69a5674cae9337261b669970e24abc0b46e6d284372a239ec8ccbf20b0ab901000000000000000000000000000000000000000000000000000000000000000000000000000000000000000000000000000000000000000000000000000000000000000000000000000000000000000000000000000000000000000000000000000000000000000000000000000000000000000000000000000000000000000000000000000000000000000000000000000000000000000000000000000000000000000000000000000000000000000000000000000000000000000000000000000000000000000000000000000000000000000000000000000000000000000000000000000000000000000000000000000000000000000000000000000000000083020000018502540be40082a8618203e800a0000000000000000000000000000000000000000000000000000000000000000088000000000000000001f863f861800a8405f5e10094100000000000000000000000000000000000000080801ba07e09e26678ed4fac08a249ebe8ed680bf9051a5e14ad223e4b2b9d26e0208f37a05f6e3f188e3e6eab7d7d3b6568f5eac7d687b08d307d3154ccd8c87b4630509bc0",
        "blockHeader": {
          "parentHash": "0x21eba612cf2240594824cd3eb7cd55f2cd2fed3b2f25e18b904d7f8c7c9b65a2",
          "uncleHash": "0x1dcc4de8dec75d7aab85b567b6ccd41ad312451b948a7413f0a142fd40d49347",
          "coinbase": "0x2adc25665018aa1fe0e6bc666dac8fc2697ff9ba",
          "stateRoot": "0x6b4ddd615401c478a76add2e6cc9bdb0a419abee39325fb6a54f9d2e77e47527",
          "transactionsTrie": "0x8151d548273f6683169524b66ca9fe338b9ce42bc3540046c828fd939ae23bcb",
          "receiptTrie": "0xc598f69a5674cae9337261b669970e24abc0b46e6d284372a239ec8ccbf20b0a",
          "bloom": "0x00000000000000000000000000000000000000000000000000000000000000000000000000000000000000000000000000000000000000000000000000000000000000000000000000000000000000000000000000000000000000000000000000000000000000000000000000000000000000000000000000000000000000000000000000000000000000000000000000000000000000000000000000000000000000000000000000000000000000000000000000000000000000000000000000000000000000000000000000000000000000000000000000000000000000000000000000000000000000000000000000000000000000000000000000000000",
          "difficulty": "0x20000",
          "number": "0x1",
          "gasLimit": "0x2540be400",
          "gasUsed": "0xa861",
          "timestamp": "0x3e8",
          "extraData": "0x00",
          "mixHash": "0x0000000000000000000000000000000000000000000000000000000000000000",
          "nonce": "0x0000000000000000",
          "baseFeePerGas": "0x1",
          "hash": "0xba9026f77a49f6890784e0af2220747392614c432c178bebd109b9410a09d741"
        }
      }
    ],
    "genesisBlockHeader": {
      "parentHash": "0x0000000000000000000000000000000000000000000000000000000000000000",
      "uncleHash": "0x1dcc4de8dec75d7aab85b567b6ccd41ad312451b948a7413f0a142fd40d49347",
      "coinbase": "0x0000000000000000000000000000000000000000",
      "stateRoot": "0xaff9f63320a482f8c4e4f15f659e6a7ac382138fbbb6919243b0cba4c5988a5a",
      "transactionsTrie": "0x56e81f171bcc55a6ff8345e692c0f86e5b48e01b996cadc001622fb5e363b421",
      "receiptTrie": "0x56e81f171bcc55a6ff8345e692c0f86e5b48e01b996cadc001622fb5e363b421",
      "bloom": "0x00000000000000000000000000000000000000000000000000000000000000000000000000000000000000000000000000000000000000000000000000000000000000000000000000000000000000000000000000000000000000000000000000000000000000000000000000000000000000000000000000000000000000000000000000000000000000000000000000000000000000000000000000000000000000000000000000000000000000000000000000000000000000000000000000000000000000000000000000000000000000000000000000000000000000000000000000000000000000000000000000000000000000000000000000000000",
      "difficulty": "0x20000",
      "number": "0x0",
      "gasLimit": "0x2540be400",
      "gasUsed": "0x12a05f200",
      "timestamp": "0x0",
      "extraData": "0x00",
      "mixHash": "0x0000000000000000000000000000000000000000000000000000000000000000",
      "nonce": "0x0000000000000000",
      "baseFeePerGas": "0x1",
      "hash": "0x21eba612cf2240594824cd3eb7cd55f2cd2fed3b2f25e18b904d7f8c7c9b65a2"
    },
    "lastblockhash": "0xba9026f77a49f6890784e0af2220747392614c432c178bebd109b9410a09d741",
    "network": "London",
    "pre": {
      "0x1000000000000000000000000000000000000000": {
        "nonce": "0x0",
        "balance": "0x0",
        "code": "0x4660015500",
        "storage": {}
      },
      "0xa94f5374fce5edbc8e2a8697c15331677e6ebf0b": {
        "nonce": "0x0",
        "balance": "0x3635c9adc5dea00000",
        "code": "0x",
        "storage": {}
      }
    },
    "sealEngine": "NoProof"
  }
}